:200000002EC0FECFFDCFFCCFFBCFFACFF9CFF8CFF7CFF6CFF5CFF4CFF3CFF2CFF1CFF0CF58
:2000200053C072C0EDCFECCFEBCF7AC1E9CFE8CFE7CFE6CFB7813DAD8BAEBE85BFAFB39FD7
:20004000B89B1E180C00FF00C9000100900244000100910246000200070048000000F894B5
:20006000EE27EFBBE5BFF8E1A895A4B7A77FA4BFF0936000E09360008DE0A2E0BB27ED931C
:200080008A95E9F780E092E0A0E0B1E0ED930197E9F7EAE4F0E085919591009761F0A5918E
:2000A000B59105901590BF01F00105900D920197E1F7FB01F0CFE1E0EEBBEFEFEDBFE2E0FA
:2000C000EEBFC0E8D1E037C20A92AA93EA93FA93EFB7EA93E0E8E6BD072C082851F0E72DF8
:2000E000F82D31977E2E8F2E70FC02C05D9801C05D9AE52DA1E03ED3EEBDE991EFBFF991CE
:20010000E991A991099018958A93EA93FA93EFB7EA9357FE09C0299A5394E7E05E228DE01F
:200120008A95F1F7299808C0E52D7BD2E656FD4FE081EEBDE0E85E2AE991EFBFF991E991C0
:20014000899118951A9344246ED208F510E03324E8E03E16A8F4E32D64D2EE56FD4F108021
:20016000E42DA1E0B0E00ED3A12DB0E0EA23FB23309721F0E32DA1E0FDD21E2B3394E8CFF4
:20018000E42D4FD2E656FD4F10834394DDCF19910895F098442447D240F4E42D42D2EE56A2
:2001A000FD4FA0E0A0834394F6CFE091810139D2309751F4E8E0E0939302E0939402E0935E
:2001C0009802E093970249C0E130A0E0FA0759F52DD231D20092920229D238D2049000923D
:2001E000930224D23DD23FD2E491E064E09394021DD240D200929502F1992FC041D21BD2EF
:20020000009299023DD222D2E491E064E093980237D226D228D204900092970231D22AD22F
:20022000009296021AC0E230A0E0FA07B1F4E2E4F0E004900092920228D20092930225D21A
:2002400000929402E2E4F0E00490009299021DD2009298021AD20092970274DF0895442495
:20026000E2D188F4449A37FE02C0E1E001C0E0E0E03011F4429801C0429A0BD2449809D218
:20028000330C4394EDCF08954424CDD158F4449A00D24498330C339B02C0E1E03E2AF9D14F
:2002A0004394F3CF08954598E981E0683E2ED7DFF0D1A881A13028F0F1D1F4D13080CFDF9F
:2002C000F8CF0DC04598E9813E2EC9DFE2D1A881A13028F0E3D1D8DFE5D13082F8CF85E863
:2002E0008A95F1F7459A22960895E0E0E093A602E093A702E093A802E093A902A881A13097
:2003000068F0CCD1D4D1E8E046D2DAD1CBD1E08188D152D2CCD124D2D3D1F0CF21960895F4
:20032000AA93EA93EFB7EA9360907900A09191026A1628F4E0919102E150E0939102A091AB
:200340009102A61528F4E0919102EF5FE0939102E991EFBFE991A9911895E2E0E6BBE0917E
:200360007A00E064E0937A00A0918001AF5FA0938001A37009F00895E0918001EF7021F54E
:20038000E7E1A7D1ADD1B3D1F0D1A0930602B09307028093080290930902A2D1B4D1A0D11F
:2003A000A6D1DED1E0930602F09307026093080270930902A0918F02AF5FA0938F02A0329F
:2003C00019F4E0E0E0938F02E6E183D1A1D1A7D1CCD1A0938A02B0938B0280938C02909357
:2003E0008D0265D1E091A602F091A7026091A8027091A90265D18CD186D18AD190D1B0D187
:20040000E0938A02F0938B0260938C0270938D02A0918E02AF5FA0938E02A03219F4E0E089
:20042000E0938E02A0918001A03108F40895E0E0E0938001E0918101E03059F4E091900296
:20044000E03021F0E150E09390020895E1E0E0938101A0910602B091070280910802909133
:200460000902E0910602F09107026091080270910902DF01CB01E2E1F9E060E070E0B4D10A
:20048000E0938201F0938301D1D0AC32E1E0BE0728F4E0E0E0938201E09383014CD1E9E3A8
:2004A000FDE060E070E050D1EBD0A132E3E0BE0738F041D1ECEAFDE060E070E045D117C02E
:2004C000DFD0AC32E1E0BE0790F435D1ECE0FDE060E070E039D1D4D0119749F4D1D0ECE046
:2004E000FDE0A7D1E638A6E0FA0708F433D1C8D0159708F42FD1C4D0B3D063D1DF01E09126
:2005000091028FD0EA17FB0750F4F19B02C0F19801C0F19AE4E6F0E07E2E8F2E01C0F19832
:20052000F09A0895E1E0E093A202EFE0EA93E1E0EA93B9DE0895E0E8E0936100E0E0E0932F
:200540006100E4E0E5B9EBEEE4B9E0E2E8B9E5E7E7B9E0E0EBB9E3EFEAB9E0E0E4BDE3E096
:20056000E5BDE0E0E6BDE7BDE8BDE0938000EBE0E0938100E0E0E0938500E0938400E09359
:200580008700E0938600E4E0E0938900E2EEE0938800E0E0E0938B00E0938A00E093B6006C
:2005A000E093B000E093B100E093B200E093B300E093B400E0936900EDBBE0936800E1E062
:2005C000E0936E00E0E0E0936F00E0937000E093C100E0E8E0BFE0E0E0937B00E0937F007A
:2005E000E0937E00E1E6E0937C00EEECE0937A00E2EDECBDE0E0EDBDEDB5EEB5E0E0E09333
:20060000BC00A895E8E3E0936000E8E2E093600089DF7894A895B199A0DEF099BADDFACF44
:20062000FFCFF0E00895E8E04E160895A0918201B09183010895E8EEF3E0C3D0DF01EAE0BA
:20064000F0E0F7D0EC5CFF4F04900895E4E6F0E0B8D0DF01EAE0F0E0ECD0EC5CFF4F0895B1
:20066000EAE0F0E00895ADD0DF01FADFE2D0EC5CFF4F0895F5DFDDD0EC5CFF4F04900895E0
:20068000A0918401B09185010895E3E4F0E00490089588EC90E00197F1F70895E881E150DD
:2006A000E8830895E881BDDFEE55FD4F0895A091A602B091A7028091A8029091A90208951A
:2006C000E093A602F093A7026093A8027093A9020895EA93E3E0EA93F5DDE3E0EA9305CE49
:2006E000E0918F02A6E8B1E09CDF61D00895AE0FBF1FA2D0A0910602B091070280910802E5
:20070000909109020895EA0FFB1FD1DF9BD00895E0918E02AAE0B2E084DF49D00895AE0F52
:20072000BF1F8AD0A0918A02B0918B0280918C0290918D020895A0918A02B0918B0280916E
:200740008C0290918D0208954FD0E0938401F09385010895E0E0E0938401E09385010895B3
:20076000EA0FFB1F681F791F0895AE1BBF0B860B970B0895EE230E2EEA2F19F0EE0F0A943D
:20078000E9F70895EE230E2EFD0121F0EE0FFF1F0A94E1F70895EE230E2EFD01BC0131F029
:2007A000EE0FFF1F661F771F0A94D1F70895EE0FFF1FEE0FFF1F08956F2F660F660B762F04
:2007C00008950024112490E1AA0FBB1F001C111C0E1A1F0A18F40E0E1F1E01C0A1609A952F
:2007E00099F7FD01D00108953F934F935F93002411244427552730E2AA0FBB1F881F991F13
:20080000001C111C441F551F0E1A1F0A460B570B28F40E0E1F1E461F571F01C0A1603A95D3
:2008200059F7FD01BC01D001CA015F914F913F910895C7DFFD010895ED91FD916D917C917C
:2008400013970895A083B183828393830895FFFFFFFFFFFFFFFFFFFFFFFFFFFFFFFFFFFF54
:201000002EC0FECFFDCFFCCFFBCFFACFF9CFF8CFF7CFF6CFF5CFF4CFF3CFF2CFF1CFF0CF48
:2010200053C072C0EDCFECCFEBCF7AC1E9CFE8CFE7CFE6CFB7813DAD8BAEBE85BFAFB39FC7
:20104000B89B1E180C00FF00C9000100900244000100910246000200070048000000F894A5
:20106000EE27EFBBE5BFF8E1A895A4B7A77FA4BFF0936000E09360008DE0A2E0BB27ED930C
:201080008A95E9F780E092E0A0E0B1E0ED930197E9F7EAE4F0E085919591009761F0A5917E
:2010A000B59105901590BF01F00105900D920197E1F7FB01F0CFE1E0EEBBEFEFEDBFE2E0EA
:2010C000EEBFC0E8D1E037C20A92AA93EA93FA93EFB7EA93E0E8E6BD072C082851F0E72DE8
:2010E000F82D31977E2E8F2E70FC02C05D9801C05D9AE52DA1E03ED3EEBDE991EFBFF991BE
:20110000E991A991099018958A93EA93FA93EFB7EA9357FE09C0299A5394E7E05E228DE00F
:201120008A95F1F7299808C0E52D7BD2E656FD4FE081EEBDE0E85E2AE991EFBFF991E991B0
:20114000899118951A9344246ED208F510E03324E8E03E16A8F4E32D64D2EE56FD4F108011
:20116000E42DA1E0B0E00ED3A12DB0E0EA23FB23309721F0E32DA1E0FDD21E2B3394E8CFE4
:20118000E42D4FD2E656FD4F10834394DDCF19910895F098442447D240F4E42D42D2EE5692
:2011A000FD4FA0E0A0834394F6CFE091810139D2309751F4E8E0E0939302E0939402E0934E
:2011C0009802E093970249C0E130A0E0FA0759F52DD231D20092920229D238D2049000922D
:2011E000930224D23DD23FD2E491E064E09394021DD240D200929502F1992FC041D21BD2DF
:20120000009299023DD222D2E491E064E093980237D226D228D204900092970231D22AD21F
:20122000009296021AC0E230A0E0FA07B1F4E2E4F0E004900092920228D20092930225D20A
:2012400000929402E2E4F0E00490009299021DD2009298021AD20092970274DF0895442485
:20126000E2D188F4449A37FE02C0E1E001C0E0E0E03011F4429801C0429A0BD2449809D208
:20128000330C4394EDCF08954424CDD158F4449A00D24498330C339B02C0E1E03E2AF9D13F
:2012A0004394F3CF08954598E981E0683E2ED7DFF0D1A881A13028F0F1D1F4D13080CFDF8F
:2012C000F8CF0DC04598E9813E2EC9DFE2D1A881A13028F0E3D1D8DFE5D13082F8CF85E853
:2012E0008A95F1F7459A22960895E0E0E093A602E093A702E093A802E093A902A881A13087
:2013000068F0CCD1D4D1E8E046D2DAD1CBD1E08188D152D2CCD124D2D3D1F0CF21960895E4
:20132000AA93EA93EFB7EA9360907900A09191026A1628F4E0919102E150E0939102A0919B
:201340009102A61528F4E0919102EF5FE0939102E991EFBFE991A9911895E2E0E6BBE0916E
:201360007A00E064E0937A00A0918001AF5FA0938001A37009F00895E0918001EF7021F53E
:20138000E7E1A7D1ADD1B3D1F0D1A0930602B09307028093080290930902A2D1B4D1A0D10F
:2013A000A6D1DED1E0930602F09307026093080270930902A0918F02AF5FA0938F02A0328F
:2013C00019F4E0E0E0938F02E6E183D1A1D1A7D1CCD1A0938A02B0938B0280938C02909347
:2013E0008D0265D1E091A602F091A7026091A8027091A90265D18CD186D18AD190D1B0D177
:20140000E0938A02F0938B0260938C0270938D02A0918E02AF5FA0938E02A03219F4E0E079
:20142000E0938E02A0918001A03108F40895E0E0E0938001E0918101E03059F4E091900286
:20144000E03021F0E150E09390020895E1E0E0938101A0910602B091070280910802909123
:201460000902E0910602F09107026091080270910902DF01CB01E2E1F9E060E070E0B4D1FA
:20148000E0938201F0938301D1D0AC32E1E0BE0728F4E0E0E0938201E09383014CD1E9E398
:2014A000FDE060E070E050D1EBD0A132E3E0BE0738F041D1ECEAFDE060E070E045D117C01E
:2014C000DFD0AC32E1E0BE0790F435D1ECE0FDE060E070E039D1D4D0119749F4D1D0ECE036
:2014E000FDE0A7D1E638A6E0FA0708F433D1C8D0159708F42FD1C4D0B3D063D1DF01E09116
:2015000091028FD0EA17FB0750F4F19B02C0F19801C0F19AE4E6F0E07E2E8F2E01C0F19822
:20152000F09A0895E1E0E093A202EFE0EA93E1E0EA93B9DE0895E0E8E0936100E0E0E0931F
:201540006100E4E0E5B9EBEEE4B9E0E2E8B9E5E7E7B9E0E0EBB9E3EFEAB9E0E0E4BDE3E086
:20156000E5BDE0E0E6BDE7BDE8BDE0938000EBE0E0938100E0E0E0938500E0938400E09349
:201580008700E0938600E4E0E0938900E2EEE0938800E0E0E0938B00E0938A00E093B6005C
:2015A000E093B000E093B100E093B200E093B300E093B400E0936900EDBBE0936800E1E052
:2015C000E0936E00E0E0E0936F00E0937000E093C100E0E8E0BFE0E0E0937B00E0937F006A
:2015E000E0937E00E1E6E0937C00EEECE0937A00E2EDECBDE0E0EDBDEDB5EEB5E0E0E09323
:20160000BC00A895E8E3E0936000E8E2E093600089DF7894A895B199A0DEF099BADDFACF34
:20162000FFCFF0E00895E8E04E160895A0918201B09183010895E8EEF3E0C3D0DF01EAE0AA
:20164000F0E0F7D0EC5CFF4F04900895E4E6F0E0B8D0DF01EAE0F0E0ECD0EC5CFF4F0895A1
:20166000EAE0F0E00895ADD0DF01FADFE2D0EC5CFF4F0895F5DFDDD0EC5CFF4F04900895D0
:20168000A0918401B09185010895E3E4F0E00490089588EC90E00197F1F70895E881E150CD
:2016A000E8830895E881BDDFEE55FD4F0895A091A602B091A7028091A8029091A90208950A
:2016C000E093A602F093A7026093A8027093A9020895EA93E3E0EA93F5DDE3E0EA9305CE39
:2016E000E0918F02A6E8B1E09CDF61D00895AE0FBF1FA2D0A0910602B091070280910802D5
:20170000909109020895EA0FFB1FD1DF9BD00895E0918E02AAE0B2E084DF49D00895AE0F42
:20172000BF1F8AD0A0918A02B0918B0280918C0290918D020895A0918A02B0918B0280915E
:201740008C0290918D0208954FD0E0938401F09385010895E0E0E0938401E09385010895A3
:20176000EA0FFB1F681F791F0895AE1BBF0B860B970B0895EE230E2EEA2F19F0EE0F0A942D
:20178000E9F70895EE230E2EFD0121F0EE0FFF1F0A94E1F70895EE230E2EFD01BC0131F019
:2017A000EE0FFF1F661F771F0A94D1F70895EE0FFF1FEE0FFF1F08956F2F660F660B762FF4
:2017C00008950024112490E1AA0FBB1F001C111C0E1A1F0A18F40E0E1F1E01C0A1609A951F
:2017E00099F7FD01D00108953F934F935F93002411244427552730E2AA0FBB1F881F991F03
:20180000001C111C441F551F0E1A1F0A460B570B28F40E0E1F1E461F571F01C0A1603A95C3
:2018200059F7FD01BC01D001CA015F914F913F910895C7DFFD010895ED91FD916D917C916C
:0E18400013970895A083B18382839383089544
:00000001FF
