:0800000022C04DC04DC0FCCF31
:10000800FBCFFACFF9CFF8CFF7CF65C0F5CFF4CF54
:10001800F3CF43C0F1CFF0CFEFCFEECFEDCFECCFA2
:10002800EBCFEACFE9CFE8CFE7CFE6CF000001007A
:100038000100040034000100800136000000F8943B
:10004800EE27EFBBE5BF8DE0A2E0BB27ED938A95D5
:10005800E9F780E092E0A0E0B1E0ED930197E9F7DD
:10006800E8E3F0E085919591009761F0A591B5914D
:1000780005901590BF01F00105900D920197E1F7E9
:10008800FB01F0CFE0E0EEBBEFEFEDBFE2E0EEBF4B
:10009800C0E8D1E046C0189518950A921A92FA92CB
:1000A8006A937A938A939A93AA93BA93EA93FA9360
:1000B800EFB7EA93E0EA27D3B0D2E991EFBFF9911D
:1000C800E991B991A9919991899179916991F99059
:1000D800199009901895EA93E0EDE093B2005D99C4
:1000E80002C05D9A01C05D98E9911895AA93E881CC
:1000F800E0937C008BE18A95F1F7E0917A00E06467
:10010800E0937A00E0917A00E071E1F3E0917A00FF
:10011800E061E0937A00E0917800F091790021960F
:100128000895E0E8E0936100E0E0E0936100EAE22E
:10013800E4B9E0E0E5B9E4E3E7B9E0E0E8B9E0E232
:10014800EAB9E0E0EBB9E4BDE5BDE6BDE7BDE8BD71
:10015800E0938000E1E0E0938100E3E8D4D2E0E0BE
:10016800E0938700E0938600E0938900E09388009D
:10017800E0938B00E0938A00E093B600E093B00030
:10018800E3E0E093B100E3E8E093B200E0E0E0935D
:10019800B300E093B400E0936E00E1E0E0936F00F9
:1001A800B8D2E0E0E093C100E0E8E0BFE0E0E0932F
:1001B8007F00E0937E00E0937C00E3E8E0937A0020
:1001C800E0E0E0937B00ECBDE093BC007894E0E0D5
:1001D800E0938201E0938301E0938401E093850139
:1001E80098D29BD29DD299D294D297D299D23324C5
:1001F8009BD230F49CD2A4D2A8D2A2D23394F8CF06
:10020800E42DA8E8B1E0AAD2FF93EF93E1E0EA93E6
:10021800E7E1EA93A3E0D4D0AF91BF91A5D2E42D52
:10022800ACE9B1E09BD2FF93EF93E1E0EA93E6E11A
:10023800EA93A3E0C5D0AF91BF9196D24394E9E089
:10024800E41508F4442433246FD248F490D286D2BB
:100258000F016DD29AD3D00187D23394F5CF3324CE
:1002680063D238F5632CEAE06E1608F580D283D2A3
:100278000D901C9086D289D3E015F105B0F477D2A1
:100288007AD283D382D284D272D268D20F0179D241
:100298007CD3D00169D2E62DA0EBB1E05FD2A0916A
:1002A800C401B091C501A083B1836394DCCF3394BA
:1002B800D7CF77D2E2E03E2EE8E03E1628F457D2B8
:1002C8005AD279D23394F8CF82D2E6E0F0E060E0F7
:1002D80070E086D2E0938201F093830162D23324E6
:1002E80023D220F432D267D23394FACF70D2EAE024
:1002F800F0E060E070E074D2E0938401F09385014F
:10030800A1E0F4DE42D244D2E091C401F091C501EB
:100318006091C6017091C701ADE0B0E080E090E067
:10032800D9D2A4E6B0E080E090E0D4D2DF01CB01DE
:10033800EFEFF3E060E070E000D3E454FD4F6F4F5F
:100348007F4F26D2E0918401F091850140D21DD2E1
:1003580020D310F4F19A01C0F198F19B08C0D9D1CB
:10036800A4E6B0E097D2DCD1A4E6B0E002C0A0E9F0
:10037800B1E090D245CFFFCFAA9312D30A8110E003
:10038800183060F4E02FE078E03811F4429A01C0A8
:1003980042982DD231D2000F1F5FF2CF06D3B1C1E0
:1003A800FFD200E010E0183038F421D233990F5F03
:1003B800000F22D21F5FF7CFE02F099119910895FE
:1003C800AA9328971A9310E0143030F41AD21ED248
:1003D800E0E0EC931F5FF8CFEB851BD221F4459842
:1003E800289A289A0BC01AD221F4459A2898289A54
:1003F80005C018D219F4459A289A289817D2EA8580
:10040800EF73EA87AA85B8DF11D210E0E9851E17D5
:1004180058F4F7D1EA0FFB1FFF93EF93C1DFAF91B9
:10042800BF91EC931F5FF2CF01D2459A289A289A80
:10043800E0E0E983EA83EB83EC8310E0E9851E17AB
:1004480070F4F9D1E8E035D2FBD1DBD1DFD1EC9102
:10045800F0E0F1D13AD228D2F3D11F5FEFCFAA85CD
:10046800A63139F4E8D1E0ECF1E060E070E065D263
:1004780013C0AA85A73139F4DED1ECE0F8E060E0DA
:1004880070E05BD209C0AF81BB27EE81F0E0BED13E
:10049800ED81F0E0EA0FFB1F18812C960895AA93CE
:1004A80024971A9310E0143028F4CFD1E0E0EC93AD
:1004B8001F5FF9CFEF81E983EE81EA83ED81EB835A
:1004C80010E0E885F0E03197A12FB0E0AE17BF0744
:1004D8003CF4BBD1EC91EA93A0E0FAD01F5FF1CFD6
:1004E800B4D1EC91EA93A1E0F3D01881299608954C
:1004F800AA9354D210E000E030E0ED818AD119F4DB
:1005080031E001E04AC08AD119F432E002E045C086
:1005180089D121F434E004E010E43FC0E430A0E0E5
:10052800FA0719F438E008E038C0E530A0E0FA0727
:1005380011F430E431C0E630A0E0FA0721F430E2EB
:1005480000E410E42AC0E730A0E0FA0719F430E12B
:1005580000E223C0E830A0E0FA0719F430E800E12F
:100568001CC0E930A0E0FA0719F430E000E415C037
:10057800EA30A0E0FA0721F430E000E214E00DC010
:10058800EB30A0E0FA0719F430E000E106C0EC30E7
:10059800A0E0FA0711F430E000E8EC81F0E03097D1
:1005A80011F4176B31C0E130A0E0FA0711F41168BB
:1005B8002BC034D111F41D6327C034D111F41D6A46
:1005C80023C0E430A0E0FA0711F41B681DC0E53031
:1005D800A0E0FA0711F41E6A17C0E630A0E0FA0797
:1005E80011F41E6B11C0E730A0E0FA0711F415688A
:1005F8000BC0E830A0E0FA0711F41F6B05C0E93022
:10060800A0E0FA0709F41F6AE2E0EA931A930A9352
:10061800A32F45DFC8D1269608951CD1A13019F41F
:100628001CD120D141C016D1A23019F416D11ED147
:1006380038C010D1A33019F410D11DD132C00AD15D
:10064800A43011F40AD12DC005D1A53019F418D160
:1006580009D12AC0FFD0A63019F412D107D121C080
:10066800F9D0A73019F40CD106D11BC0F3D0A830AB
:1006780011F406D116C0EED0A93019F406D1F2D083
:1006880013C0E8D0AA3019F400D1F0D00AC0E2D0E3
:10069800AB3019F4FAD0EFD004C0DCD0AC3031F470
:1006A800F4D0EAE0F0E06ED1E0938101E0918001BE
:1006B800EA93A09181011CDFE0918001EF5FE09354
:1006C8008001C8D0A93018F0E1E0E09380010895D6
:1006D800AA931A9310E0183070F4EA81E078E038B1
:1006E80011F42B9A01C02B98EA81EE0FEA832D9A18
:1006F8002D981F5FF0CFE981E03011F0299A2998F1
:10070800188123960895E0938500E0E0E093840043
:100718000895E1E0E09370000895A8ECB0E0BAC055
:10072800E0E0E09370000895EAE03E160895E32DB6
:10073800A8E8B1E0F0E0EE0FFF1FAE0FBF1F08956D
:10074800E0E0F0E0ED93FC930895E32DACE9B1E02F
:10075800F0E0EE0FFF1FAE0FBF1F0895F0E0EE0FA1
:10076800FF1FEA0FFB1F0895ED93FC930895E32DF7
:10077800A0EBB1E00895F0E0EE0FFF1FAE0FBF1F32
:100788000895E62DA0EBB1E0F6CF66277727089508
:10079800E093C401F093C5016093C6017093C7014B
:1007A8000895E0E0E093C401E093C501E093C60139
:1007B800E093C7010895E9D0A091C401B091C501A3
:1007C8008091C6019091C701E0DF6ED0E1CFA09182
:1007D800C401B091C5018091C6019091C7010895E7
:1007E800ACD0D6DFE091C401F091C5010895449AD8
:1007F80085E88A95F1F70895449885E88A95F1F790
:100808000895E12FF0E0DE0115960895AE0FBF1FA1
:100818000895F0E0E130A0E0FA070895E230A0E0A2
:10082800FA070895E330A0E0FA07089588EC90E00D
:100838000197F1F70895A981BA818B819C81089568
:10084800E983FA836B837C830895E12FF0E0DE016E
:100858001196DCCFA09180010895A0918201B091FA
:1008680083010895E8EEF3E055D00895E4E6F0E05A
:1008780051D0DF010895EAE0F0E04CD0DF0108959F
:10088800A0918401B09185010895A0918601B0914D
:1008980087010895109639F080ED97E00197F1F7F8
:1008A800A8951197C9F70895EA0FFB1F681F791FCC
:1008B8000895EE230E2EFD01BC0131F0EE0FFF1F4F
:1008C800661F771F0A94D1F708956F2F660F660B7E
:1008D800762F08957A9F702D6B9F700DF89F700D7D
:1008E800E99F700D6A9F602D710DFB9F600D711D52
:1008F800E89F600D711D8827FA9FF02D610D781F04
:10090800EB9FF00D611D781FEA9FE02DF10D681F28
:10091800781F08950024112490E1AA0FBB1F001C22
:10092800111C0E1A1F0A18F40E0E1F1E01C0A1601A
:100938009A9599F7FD01D00108953F934F935F93DE
:10094800002411244427552730E2AA0FBB1F881F13
:10095800991F001C111C441F551F0E1A1F0A460B15
:10096800570B28F40E0E1F1E461F571F01C0A1600B
:100978003A9559F7FD01BC01D001CA015F914F9129
:100988003F910895C7DFFD010895ED91FC911197FE
:100998000895AE17BF078607970708953A932A93D5
:1009A8001A930A9308953B812A8119810881089531
:00000001FF
