:0E00000029C054C053C0FCCFFBCFFACFF9CFBC
:10000E00F8CFF7CF75C0F5CFF4CFF3CF4AC0F1CF0D
:10001E00F0CFEFCFEECFEDCFECCFEBCFEACFE9CFF6
:10002E00E8CFE7CFE6CF0001000000000100B78166
:10003E003DAD8BAEBE85BFAF0500040034000A0097
:10004E0000023C000000F894EE27EFBBE5BF8DE008
:10005E00A2E0BB27ED938A95E9F780E092E0A0E05D
:10006E00B1E0ED930197E9F7E6E4F0E08591959123
:10007E00009761F0A591B59105901590BF01F00123
:10008E0005900D920197E1F7FB01F0CFE0E0EEBB9A
:10009E00EFEFEDBFE2E0EEBFC0E8D1E04FC0F29A65
:1000AE0018950A921A92FA926A937A938A939A936D
:1000BE00AA93BA93EA93FA93EFB7EA93E0EAEBD2F4
:1000CE008BD2E8ECF0E07E168F0620F4E1E0F0E053
:1000DE007E0E8F1EE991EFBFF991E991B991A99129
:1000EE009991899179916991F99019900990189542
:1000FE00EA93E0EDE093B2005D9902C05D9A01C013
:10010E005D98E9911895AA93E881E0937C008BE1C4
:10011E008A95F1F7E0917A00E064E0937A00E0913D
:10012E007A00E071E1F3E0917A00E061E0937A0009
:10013E00E0917800F091790021960895E0E8E0933F
:10014E006100E0E0E0936100EAE2E4B9E0E0E5B9E5
:10015E00E4E3E7B9E0E0E8B9E0E2EAB9E0E0EBB900
:10016E00E4BDE5BDE6BDE7BDE8BDE0938000E1E09E
:10017E00E0938100E3E88FD2E0E0E0938700E09324
:10018E008600E0938900E0938800E0938B00E09373
:10019E008A00E093B600E093B000E3E0E093B10094
:1001AE00E3E8E093B200E0E0E093B300E093B40044
:1001BE00E0936E00E1E0E0936F0073D2EAE0E0932B
:1001CE006900E3E0EDBBECBBE0E0E0936800E09398
:1001DE00C100E0E8E0BFE0E0E0937F00E0937E0046
:1001EE00E0937C00E3E8E0937A00E0E0E0937B00AC
:1001FE00ECBDE093BC007894E0E0E0938001E093E6
:10020E008101E0938201E09383014FD2A0D149D2C4
:10021E0050D24BD24ED245D24CD247D23324EAE002
:10022E003E1630F449D251D255D24FD23394F7CF35
:10023E004424F29BCAC0E42DA4E8B1E054D2FF934B
:10024E00EF9357D2E7E158D2E6E0F4E060E070E0D9
:10025E00B0D3AF91BF9156D2E42DACEAB1E043D208
:10026E00FF93EF9346D2E6E147D2E4EEF0E060E092
:10027E0070E09FD3AF91BF9145D23BD246D233248B
:10028E004DD238F44ED22FD20F0116D24ED2339415
:10029E00F7CF332443D2B8F4632CE4E16E1688F41E
:1002AE0040D246D24BD2ADD3E015F10540F439D24F
:1002BE003FD24AD218D254D238D257D25AD263949D
:1002CE00ECCF3394E7CF5CD2E0E13E1628F429D28E
:1002DE002FD262D23394F8CF74D229F48CD2E09319
:1002EE008001F0938101332419D238F41AD2FBD154
:1002FE000F01F0D11AD23394F7CF33240FD2B8F4C2
:10030E00632CE4E16E1688F40CD212D217D279D394
:10031E00E015F10540F405D20BD216D2E4D120D26D
:10032E0004D223D226D26394ECCF3394E7CF28D2D3
:10033E00E0E13E1628F4F5D1FBD12ED23394F8CF5E
:10034E0040D239F458D2E0938201F093830177249E
:10035E0088244394E4E14E1608F04424A1E0D3DE51
:10036E00662777274DD2E091FC01F091FD01609157
:10037E00FE017091FF01ADE0B0E080E090E0E6D2CA
:10038E00A4E6B0E080E090E0E1D2DF01CB01EFEF38
:10039E00F3E060E070E00DD3E454FD4F6F4F7F4FFC
:1003AE002FD2E0918201F0918301A091FC01B091D6
:1003BE00FD018091FE019091FF016627772725D3DD
:1003CE0010F4F19A01C0F198F298F19B08C069D12E
:1003DE00A4E6B0E093D269D1A4E6B0E08FD229CFE3
:1003EE00FFCFAA931BD30A8110E0183060F4E02FE0
:1003FE00E078E03811F4429A01C042980AD20ED247
:10040E00000F1F5FF2CF11D344C108D300E010E0FC
:10041E00183038F4000FFDD133990F5FFFD11F5FF5
:10042E00F7CFE02F099119910895AA9324971A9363
:10043E00FAD1EA85FFD119F4459801D20FC0E23006
:10044E00A0E0FA0721F4459A2898289A07C0E330CD
:10045E00A0E0FA0719F4459A289A2898E985EF73CF
:10046E00E987E068E987EED1A985BBDFEBD110E023
:10047E00E8851E1730F4EBD1EDD1AC91B2DF1F5FE2
:10048E00F7CFE0D1459ADBD118812B960895AA9328
:10049E0028971A9310E0143048F4D9D1DE0115963E
:1004AE00AE0FBF1FE0E0EC931F5FF5CFEB85C2D11F
:1004BE0019F44598C4D10FC0E230A0E0FA0721F438
:1004CE00459A2898289A07C0E330A0E0FA0719F455
:1004DE00459A289A2898B6D1EA85EF73EA87AA85B5
:1004EE0080DFB0D110E0E9851E1768F4B0D1DE01CF
:1004FE001596EA0FFB1FFF93EF9387DFAF91BF9126
:10050E00EC931F5FF0CF9ED1459A99D1E0E0E9833D
:10051E00EA83EB83EC8310E0E9851E1788F49FD104
:10052E00E8E003D2A1D193D1DE011596AE0FBF1F25
:10053E00EC91F0E094D105D2EBD196D11F5FECCFC8
:10054E00E981FA816B817C8118812C960895D1D036
:10055E00E9E08FD194D1CDD0EAE08BD1E0E1EA93FE
:10056E00A0E063DFA6D0C5D0D0D0A3D0C2D0EFE13B
:10057E00EA93BFD0EAE2EA9382D1BBD0EEE1EA93EE
:10058E00B8D0EFEFEA937BD10895AA9324971A93EC
:10059E0010E0143030F45BD15DD1E0E0EC931F5FDE
:1005AE00F8CF41D110E0E885F0E03197A12FB0E00F
:1005BE00AE17BF0744F44BD14DD1EC91EA93A0E0B6
:1005CE004DD01F5FF0CF43D145D1EC91EA93A1E01E
:1005DE0045D01881299608951DD251E010E000E013
:1005EE0030E05394E52DE150A52F97D15E2FE8E032
:1005FE00E51518F4E1E05E2E51E046D14AD109F03E
:10060E00316042D151D15DD109F032603DD15CD122
:10061E005ED1106456D109F0346036D162D109F042
:10062E00386067D136D109F0306863D13DD110649E
:10063E0048D109F030645DD147D149D142D109F09A
:10064E00306257D14ED109F03061E2E0EA935A930D
:10065E003A93A02F9ADFE5D126960895AA931A937E
:10066E0010E0183080F4EA81E078E03811F42B9A2B
:10067E0001C02B98EA81F0E0EE0FFF1FEA832D9A5E
:10068E002D981F5FEECFE981E03011F0299A29985D
:10069E00188123960895E0938500E0E0E0938400AE
:1006AE000895E1E0E09370000895E0E0E0937000BB
:1006BE000895A8ECB0E022C1E32DA4E8B1E0F0E08B
:1006CE00EE0FFF1FAE0FBF1F0895E0E0F0E0ED93B9
:1006DE00FC930895E32DACEAB1E0F0E0EE0FFF1FBE
:1006EE00AE0FBF1F0895F0E0EE0FFF1FEA0FFB1FC6
:1006FE000895E1E0EA930895EA93A3E0C8DEDF01EE
:10070E00CB010895ED93FC930895ECE0EA93E2E0BB
:10071E00EA93E0E0EA93EA93A0E087CEE4E13E16A6
:10072E000895E32DA4EDB1E008956BD1D001EACF89
:10073E00F0E0EE0FFF1FAE0FBF1F08950D901C903F
:10074E00E62DA4EDB1E0F4CF5CD166277727E093D8
:10075E00FC01F093FD016093FE017093FF01E1CF68
:10076E000F01E62DA4EDB1E0E3CFE62DA4EDB1E04F
:10077E00BACFA091FC01B091FD01A083B183089581
:10078E00E0E0E093FC01E093FD01E093FE01E093D5
:10079E00FF01E4E03E2E089534D1A091FC01B0910A
:1007AE00FD018091FE019091FF0166277727B0D061
:1007BE00E093FC01F093FD016093FE017093FF0145
:1007CE000895A091FC01B091FD018091FE019091E0
:1007DE00FF01ECE0F0E060E070E0EBD0E093FC01B4
:1007EE00F093FD016093FE017093FF01E8ECF0E0E1
:1007FE00E715F8050895E091FC01F091FD010895CB
:10080E00E093FC01F093FD016093FE017093FF01F4
:10081E000895449A85E88A95F1F70895449885E8F5
:10082E008A95F1F70895EF81E983EE81EA83ED81F0
:10083E00EB830895F0E0E130A0E0FA070895289ADE
:10084E00289A089588EC90E00197F1F70895E12F2A
:10085E00F0E00895DE011196AE0FBF1F0895A98135
:10086E00BA818B819C810895E983FA836B837C83A3
:10087E000895EA93E2E0EA93E0E0EA930895E0E077
:10088E00EA93A0E0D2DD15CFA0918001B091810155
:10089E000895E8EEF3E07AD02E2FF0E0E050FE4F10
:1008AE001081E52FE1230895E4E6F0E06FD0DF013B
:1008BE00EAE0F0E0A3D02E2FF0E0E050FE4F1081E2
:1008CE000895E52FE1230895EAE0F0E008955ED063
:1008DE00DF01FADF93D02E2FF0E0E050FE4F1081B3
:1008EE000895F2DF8BD02E2FF0E0E050FE4F1081F6
:1008FE00E8CFA0918201B09183010895109639F04E
:10090E0080ED97E00197F1F7A8951197C9F7089533
:10091E00EA0FFB1F681F791F0895EE230E2EEA2F94
:10092E0019F0EE0F0A94E9F70895EE230E2EFD014D
:10093E00BC0131F0EE0FFF1F661F771F0A94D1F72F
:10094E0008956F2F660F660B762F08957A9F702D80
:10095E006B9F700DF89F700DE99F700D6A9F602D53
:10096E00710DFB9F600D711DE89F600D711D882735
:10097E00FA9FF02D610D781FEB9FF00D611D781F12
:10098E00EA9FE02DF10D681F781F089500241124B1
:10099E0090E1AA0FBB1F001C111C0E1A1F0A18F49F
:1009AE000E0E1F1E01C0A1609A9599F7FD01D00190
:1009BE0008953F934F935F930024112444275527A6
:1009CE0030E2AA0FBB1F881F991F001C111C441F69
:1009DE00551F0E1A1F0A460B570B28F40E0E1F1E1C
:1009EE00461F571F01C0A1603A9559F7FD01BC0182
:1009FE00D001CA015F914F913F910895C7DFFD016C
:100A0E000895ED91FC9111970895AE17BF078607D3
:100A1E00970708955A934A933A932A931A930A93EF
:100A2E0008955D814C813B812A8119810881089549
:00000001FF
