:0400000022C04DC00D
:100004004DC0FCCFFBCFFACFF9CFF8CFF7CF65C007
:10001400F5CFF4CFF3CF43C0F1CFF0CFEFCFEECF96
:10002400EDCFECCFEBCFEACFE9CFE8CFE7CFE6CF08
:1000340000000100010004003400010080013600CA
:100044000000F894EE27EFBBE5BF8DE0A2E0BB27EC
:10005400ED938A95E9F780E092E0A0E0B1E0ED93BA
:100064000197E9F7E8E3F0E085919591009761F055
:10007400A591B59105901590BF01F00105900D92E1
:100084000197E1F7FB01F0CFE0E0EEBBEFEFEDBF4E
:10009400E2E0EEBFC0E8D1E046C0189518950A9298
:1000A4001A92FA926A937A938A939A93AA93BA9336
:1000B400EA93FA93EFB7EA93E0EAECD275D2E991C6
:1000C400EFBFF991E991B991A991999189917991A8
:1000D4006991F990199009901895EA93E0EDE093ED
:1000E400B2005D9902C05D9A01C05D98E9911895CE
:1000F400AA93E881E0937C008BE18A95F1F7E09183
:100104007A00E064E0937A00E0917A00E071E1F330
:10011400E0917A00E061E0937A00E0917800F09158
:10012400790021960895E0E8E0936100E0E0E0932F
:100134006100EAE2E4B9E0E0E5B9E4E3E7B9E0E06C
:10014400E8B9E0E2EAB9E0E0EBB9E4BDE5BDE6BD5B
:10015400E7BDE8BDE0938000E1E0E0938100E3E8DF
:1001640099D2E0E0E0938700E0938600E093890071
:10017400E0938800E0938B00E0938A00E093B6005C
:10018400E093B000E3E0E093B100E3E8E093B20071
:10019400E0E0E093B300E093B400E0936E00E1E0AC
:1001A400E0936F007DD2E0E0E093C100E0E8E0BFBF
:1001B400E0E0E0937F00E0937E00E0937C00E3E8DE
:1001C400E0937A00E0E0E0937B00ECBDE093BC00B8
:1001D4007894E0E0E0938201E0938301E09384016A
:1001E400E09385015DD260D262D25ED259D25CD2F4
:1001F4005ED2E42D60D265D2FF93EF93E1E0EA93FF
:10020400E7E1EA93A3E0A5D0AF91BF91ED93FC930E
:10021400E42D5AD256D2FF93EF93E1E0EA93E6E15C
:10022400EA93A3E096D0AF91BF91ED93FC934394EE
:10023400E9E0E41538F44424F09904C0F09A30D28B
:1002440033D235D2F09B52C045D2EAE03E1628F4B0
:10025400E32D31D24AD23394F8CF5ED2E0938201B7
:10026400F093830137D2EAE03E1628F4E32D2CD232
:100274003CD23394F8CF50D2E0938401F0938501BB
:10028400A1E036DF6627772761D2E091B001F091D3
:10029400B1016091B2017091B301A8E0B0E080E0D7
:1002A40090E0D0D2AAE0B0E080E090E0CBD2DF01D1
:1002B400CB01EFEFF3E060E070E0F7D2E05BFF4FDB
:1002C4006F4F7F4F43D2E0918401F0918501A0915B
:1002D400B001B091B1018091B2019091B301662750
:1002E40077270FD310F4F19A01C0F198F19B08C05D
:1002F400D7D1A4E6B0E086D2DAD1A4E6B0E002C059
:10030400A4EFB1E07FD275CFFFCFAA9301D30A81C6
:1003140010E0183060F4E02FE078E03811F4429AED
:1003240001C042981CD220D2000F1F5FF2CFF5D239
:10033400AFC1EED200E010E0183038F410D2339997
:100344000F5F000F11D21F5FF7CFE02F09911991B2
:100354000895AA9328971A9310E0143030F409D220
:100364000DD2E0E0EC931F5FF8CFEB850AD221F4C5
:100374004598289A289A0BC009D221F4459A2898BE
:10038400289A05C007D219F4459A289A289806D2C3
:10039400EA85EF73EA87AA85B8DF00D210E0E98521
:1003A4001E1750F4E6D18DD1FF93EF93C2DFAF91C6
:1003B400BF91EC931F5FF3CFF1D1459A289A289A05
:1003C400E0E0E983EA83EB83EC8310E0E9851E1720
:1003D40070F4E9D1E8E025D2EBD1CBD1CFD1EC91C7
:1003E400F0E0E1D12AD218D2E3D11F5FEFCFAA8582
:1003F400A63139F4D8D1E0E1FEE060E070E055D2F6
:1004040012C0AA85A73139F4CED1E0EFFAE060E05A
:1004140070E04BD208C0AF81BB27EE81F0E0AED1D3
:10042400ED81F0E04ED118812C960895AA9324977B
:100434001A9310E0143028F4C0D1E0E0EC931F5F6D
:10044400F9CFEF81E983EE81EA83ED81EB8310E05C
:10045400E885F0E03197A12FB0E0AE17BF073CF478
:10046400ACD1EC91EA93A0E0FAD01F5FF1CFA5D113
:10047400EC91EA93A1E0F3D0188129960895AA9308
:1004840045D210E000E030E0ED817BD119F431E099
:1004940001E04AC07BD119F432E002E045C07AD1D0
:1004A40021F434E004E010E43FC0E430A0E0FA07B3
:1004B40019F438E008E038C0E530A0E0FA0711F498
:1004C40030E431C0E630A0E0FA0721F430E200E481
:1004D40010E42AC0E730A0E0FA0719F430E100E2A2
:1004E40023C0E830A0E0FA0719F430E800E11CC0AA
:1004F400E930A0E0FA0719F430E000E415C0EA306E
:10050400A0E0FA0721F430E000E214E00DC0EB3083
:10051400A0E0FA0719F430E000E106C0EC30A0E0F6
:10052400FA0711F430E000E8EC81F0E0309711F4C0
:10053400176B31C0E130A0E0FA0711F411682BC049
:1005440025D111F41D6327C025D111F41D6A23C0E0
:10055400E430A0E0FA0711F41B681DC0E530A0E008
:10056400FA0711F41E6A17C0E630A0E0FA0711F486
:100574001E6B11C0E730A0E0FA0711F415680BC038
:10058400E830A0E0FA0711F41F6B05C0E930A0E0E1
:10059400FA0709F41F6AE2E0EA931A930A93A32F75
:1005A40045DFB9D1269608950DD1A13019F40DD1A6
:1005B40011D141C007D1A23019F407D10FD138C0ED
:1005C40001D1A33019F401D10ED132C0FBD0A43033
:1005D40011F4FBD02DC0F6D0A53019F409D1FAD00E
:1005E4002AC0F0D0A63019F403D1F8D021C0EAD043
:1005F400A73019F4FDD0F7D01BC0E4D0A83011F413
:10060400F7D016C0DFD0A93019F4F7D0E3D013C067
:10061400D9D0AA3019F4F1D0E1D00AC0D3D0AB308C
:1006240019F4EBD0E0D004C0CDD0AC3031F4E5D037
:10063400EAE0F0E05FD1E0938101E0918001EA9388
:10064400A09181011CDFE0918001EF5FE0938001C4
:10065400B9D0A93018F0E1E0E09380010895AA939D
:100664001A9310E0183070F4EA81E078E03811F45D
:100674002B9A01C02B98EA81EE0FEA832D9A2D98CC
:100684001F5FF0CFE981E03011F0299A2998188191
:1006940023960895E0938500E0E0E09384000895B4
:1006A400E1E0E09370000895A8ECB0E0ABC0E0E0B6
:1006B400E09370000895A8E8B1E0F0E0EE0FFF1FAA
:1006C4000895EA0FFB1F0895ACE9B1E0F0E0EE0FE6
:1006D400FF1F0895E0E0E093B001E093B101E093DF
:1006E400B201E093B30133240895AE0FBF1F05D1C7
:1006F400A091B001B091B1018091B2019091B30188
:100704006627772789D0E093B001F093B101609315
:10071400B2017093B3010895A091B001B091B101F9
:100724008091B2019091B301EAE0F0E060E070E002
:10073400BCD0E093B001F093B1016093B201709327
:10074400B301E091B001F091B1010895E093B001DB
:10075400F093B1016093B2017093B3010895449A88
:1007640085E88A95F1F70895449885E88A95F1F724
:100774000895E12FF0E0DE0115960895AE0FBF1F36
:100784000895F0E0E130A0E0FA070895E230A0E037
:10079400FA070895E330A0E0FA07089588EC90E0A2
:1007A4000197F1F70895A981BA818B819C810895FD
:1007B400E983FA836B837C830895E12FF0E0DE0103
:1007C4001196DCCFA09180010895A0918201B0918F
:1007D40083010895E8EEF3E055D00895E4E6F0E0EF
:1007E40051D0DF010895EAE0F0E04CD0DF01089534
:1007F400A0918401B09185010895A0918601B091E2
:1008040087010895109639F080ED97E00197F1F78C
:10081400A8951197C9F70895EA0FFB1F681F791F60
:100824000895EE230E2EFD01BC0131F0EE0FFF1FE3
:10083400661F771F0A94D1F708956F2F660F660B12
:10084400762F08957A9F702D6B9F700DF89F700D11
:10085400E99F700D6A9F602D710DFB9F600D711DE6
:10086400E89F600D711D8827FA9FF02D610D781F98
:10087400EB9FF00D611D781FEA9FE02DF10D681FBD
:10088400781F08950024112490E1AA0FBB1F001CB7
:10089400111C0E1A1F0A18F40E0E1F1E01C0A160AF
:1008A4009A9599F7FD01D00108953F934F935F9373
:1008B400002411244427552730E2AA0FBB1F881FA8
:1008C400991F001C111C441F551F0E1A1F0A460BAA
:1008D400570B28F40E0E1F1E461F571F01C0A160A0
:1008E4003A9559F7FD01BC01D001CA015F914F91BE
:1008F4003F910895C7DFFD010895ED91FC91119793
:100904000895AE17BF078607970708953A932A9369
:100914001A930A9308953B812A81198108810895C5
:00000001FF
