:0800000022C04DC04DC0FCCF31
:10000800FBCFFACFF9CFF8CFF7CFF6CFF5CFF4CFB4
:10001800F3CF43C0F1CFF0CFEFCFEECFEDCFECCFA2
:10002800EBCFEACFE9CFE8CFE7CFE6CF000001007A
:100038000100040034000100800136000000F8943B
:10004800EE27EFBBE5BF8DE0A2E0BB27ED938A95D5
:10005800E9F780E092E0A0E0B1E0ED930197E9F7DD
:10006800E8E3F0E085919591009761F0A591B5914D
:1000780005901590BF01F00105900D920197E1F7E9
:10008800FB01F0CFE0E0EEBBEFEFEDBFE2E0EEBF4B
:10009800C0E8D1E020C0189518950A921A92FA92F1
:1000A8006A937A938A939A93AA93BA93EA93FA9360
:1000B800EFB7EA93E0EA6CD2F5D1E991EFBFF99195
:1000C800E991B991A9919991899179916991F99059
:1000D800199009901895E0E8E0936100E0E0E0935A
:1000E8006100EAE2E4B9E0E0E5B9E4E3E7B9E0E0B9
:1000F800E8B9E0E2EAB9E0E0EBB9E4BDE5BDE6BDA8
:10010800E7BDE8BDE0938000E1E0E0938100E3E82B
:100118003FD2E0E0E0938700E0938600E093890017
:10012800E0938800E0938B00E0938A00E093B600A8
:10013800E093B000E093B100E093B200E093B30025
:10014800E093B400E0936E00E1E0E0936F00E0E03C
:10015800E0937000E093C100E0E8E0BFE0E0E093E6
:100168007F00ECBDE093BC007894E0E0E09382016E
:10017800E0938301E0938401E09385010FD2E42D9D
:1001880013D2EA0FFB1FFF93EF93E1E0EA93E7E155
:10019800EA93A3E064D0AF91BF91ED93FC93E42D73
:1001A80009D2EA0FFB1FFF93EF93E1E0EA93E6E140
:1001B800EA93A3E054D0AF91BF91ED93FC9343949D
:1001C800E9E0E41528F44424F09902C0F09AE6D155
:1001D800F09B1CC0F5D1EAE03E1628F4E32DE4D1EB
:1001E800FAD13394F8CF0ED2E0938201F0938301D1
:1001F800E7D1EAE03E1628F4E32DDCD1ECD13394C4
:10020800F8CF00D2E0938401F0938501A4EFB1E028
:1002180066D2B5CFFFCFAA93C3D20A8110E01830B7
:1002280060F4E02FE078E03811F4429A01C0429877
:1002380003D207D2000F1F5FF2CFB7D2A7C1B0D247
:1002480000E010E0183038F4F7D133990F5F000F51
:10025800F8D11F5FF7CFE02F099119910895AA935C
:1002680028971A9310E0143030F4F0D1F4D1E0E07C
:10027800EC931F5FF8CFEB85F1D121F44598289ACC
:10028800289A0BC0F0D121F4459A2898289A05C0DD
:10029800EED119F4459A289A2898EDD1EA85EF739A
:1002A800EA87AA85B8DFE7D110E0E9851E1758F478
:1002B800CDD1EA0FFB1FFF93EF93C1DFAF91BF9141
:1002C800EC931F5FF2CFD7D1459A289A289AE0E09D
:1002D800E983EA83EB83EC8310E0E9851E1770F469
:1002E800CFD1E8E00BD2D1D1B1D1B5D1EC91F0E0CA
:1002F800C7D110D2FED1C9D11F5FEFCFAA85A631D1
:1003080039F4BED1E0E1FEE060E070E01BD209C044
:10031800AA85A73131F4B4D1E0EFFAE060E070E0EB
:1003280011D218812C960895AA9324971A9310E055
:10033800143028F4AFD1E0E0EC931F5FF9CFEF81E0
:10034800E983EE81EA83ED81EB8310E0E885F0E054
:100358003197A12FB0E0AE17BF073CF49BD1EC91C9
:10036800EA93A0E0FAD01F5FF1CF94D1EC91EA9321
:10037800A1E0F3D0188129960895AA930FD210E02E
:1003880000E030E0ED816AD119F431E001E04AC0C3
:100398006AD119F432E002E045C069D121F434E0B1
:1003A80004E010E43FC0E430A0E0FA0719F438E0B4
:1003B80008E038C0E530A0E0FA0711F430E431C0B5
:1003C800E630A0E0FA0721F430E200E410E42AC0A5
:1003D800E730A0E0FA0719F430E100E223C0E83082
:1003E800A0E0FA0719F430E800E11CC0E930A0E009
:1003F800FA0719F430E000E415C0EA30A0E0FA0783
:1004080021F430E000E214E00DC0EB30A0E0FA0780
:1004180019F430E000E106C0EC30A0E0FA0711F46E
:1004280030E000E8EC81F0E0309711F4176B31C050
:10043800E130A0E0FA0711F411682BC014D111F4CF
:100448001D6327C014D111F41D6A23C0E430A0E055
:10045800FA0711F41B681DC0E530A0E0FA0711F493
:100468001E6A17C0E630A0E0FA0711F41E6B11C02F
:10047800E730A0E0FA0711F415680BC0E830A0E0F7
:10048800FA0711F41F6B05C0E930A0E0FA0709F478
:100498001F6AE2E0EA931A930A93A32F45DF83D1F8
:1004A80026960895FCD0A13019F4FCD000D141C0A3
:1004B800F6D0A23019F4F6D0FED038C0F0D0A33070
:1004C80019F4F0D0FDD032C0EAD0A43011F4EAD04B
:1004D8002DC0E5D0A53019F4F8D0E9D02AC0DFD076
:1004E800A63019F4F2D0E7D021C0D9D0A73019F43A
:1004F800ECD0E6D01BC0D3D0A83011F4E6D016C09B
:10050800CED0A93019F4E6D0D2D013C0C8D0AA30C2
:1005180019F4E0D0D0D00AC0C2D0AB3019F4DAD088
:10052800CFD004C0BCD0AC3031F4D4D0EAE0F0E095
:100538002ED1E0938101E0918001EA93A09181019D
:100548001CDFE0918001EF5FE0938001A8D0A93023
:1005580018F0E1E0E09380010895AA931A9310E05F
:10056800183070F4EA81E078E03811F42B9A01C071
:100578002B98EA81EE0FEA832D9A2D981F5FF0CF12
:10058800E981E03011F0299A299818812396089575
:10059800E0938500E0E0E093840008955D9AA4E686
:1005A800B0E09DD05D980895A8E8B1E0F0E0EE0FC6
:1005B800FF1F0895ACE9B1E0F0E0EE0FFF1F0895CA
:1005C800E0E0E093B001E093B101E093B201E09381
:1005D800B30133240895AE0FBF1FDCD0A091B00142
:1005E800B091B1018091B2019091B301662777274C
:1005F80080D0E093B001F093B1016093B2017093A1
:10060800B3010895A091B001B091B1018091B201F8
:100618009091B301EAE0F0E060E070E093D0E093FD
:10062800B001F093B1016093B2017093B301E0910E
:10063800B001F091B1010895449A85E88A95F1F7DF
:100648000895449885E88A95F1F70895E12FF0E038
:10065800DE0115960895AE0FBF1F0895F0E0E13052
:10066800A0E0FA070895E230A0E0FA070895E33021
:10067800A0E0FA07089588EC90E00197F1F7089553
:10068800A981BA818B819C810895E983FA836B8360
:100698007C830895E12FF0E0DE011196DCCFA09174
:1006A80080010895A0918201B09183010895E8EE38
:1006B800F3E035D00895E4E6F0E031D0DF010895A5
:1006C800EAE0F0E02CD0DF010895A0918401B09118
:1006D80085010895A0918601B0918701089510962B
:1006E80039F080ED97E00197F1F7A8951197C9F7D0
:1006F8000895EA0FFB1F681F791F0895EE230E2E39
:10070800FD01BC0131F0EE0FFF1F661F771F0A9431
:10071800D1F708956F2F660F660B762F0895002482
:10072800112490E1AA0FBB1F001C111C0E1A1F0AEE
:1007380018F40E0E1F1E01C0A1609A9599F7FD01CD
:10074800D00108953F934F935F93002411244427C9
:10075800552730E2AA0FBB1F881F991F001C111CC8
:10076800441F551F0E1A1F0A460B570B28F40E0E6E
:100778001F1E461F571F01C0A1603A9559F7FD017A
:10078800BC01D001CA015F914F913F910895C7DF25
:10079800FD010895ED91FC91119708953A932A93DC
:1007A8001A930A9308953B812A8119810881089533
:00000001FF
