:1000000024C04FC04EC0FCCFFBCFFACFF9CFF8CF02
:10001000F7CF70C0F5CFF4CFF3CF45C0F1CFF0CF1D
:10002000EFCFEECFEDCFECCFEBCFEACFE9CFE8CFFC
:10003000E7CFE6CF0000000000000100050004004B
:100040003400010080013A000000F894EE27EFBB75
:10005000E5BF8DE0A2E0BB27ED938A95E9F780E04C
:1000600092E0A0E0B1E0ED930197E9F7ECE3F0E076
:1000700085919591009761F0A591B59105901590A6
:10008000BF01F00105900D920197E1F7FB01F0CF60
:10009000E0E0EEBBEFEFEDBFE2E0EEBFC0E8D1E0A5
:1000A0004FC0F29A18950A921A92FA926A937A932A
:1000B0008A939A93AA93BA93EA93FA93EFB7EA933F
:1000C000E0EA8FD318D3E8ECF0E07E168F0620F438
:1000D000E1E0F0E07E0E8F1EE991EFBFF991E9912A
:1000E000B991A9919991899179916991F990199012
:1000F00009901895EA93E0EDE093B2005D9902C093
:100100005D9A01C05D98E9911895AA93E881E09302
:100110007C008BE18A95F1F7E0917A00E064E0934E
:100120007A00E0917A00E071E1F3E0917A00E06119
:10013000E0937A00E0917800F0917900219608959B
:10014000E0E8E0936100E0E0E0936100EAE2E4B916
:10015000E0E0E5B9E4E3E7B9E0E0E8B9E0E2EAB914
:10016000E0E0EBB9E4BDE5BDE6BDE7BDE8BDE09389
:100170008000E1E0E0938100E3E833D3E0E0E09346
:100180008700E0938600E0938900E0938800E09385
:100190008B00E0938A00E093B600E093B000E3E0C8
:1001A000E093B100E3E8E093B200E0E0E093B30055
:1001B000E093B400E0936E00E1E0E0936F0017D3AA
:1001C000EAE0E0936900E3E0EDBBECBBE0E0E09344
:1001D0006800E093C100E0E8E0BFE0E0E0937F006A
:1001E000E0937E00E0937C00E3E8E0937A00E0E0B7
:1001F000E0937B00ECBDE093BC007894E0E0E093FA
:100200008201E0938301E0938401E0938501F3D2BE
:1002100098D1EDD2F4D2EFD2F2D2E9D2F0D2EBD231
:100220003324EAE03E1630F4EDD2F5D2F9D2F3D21F
:100230003394F7CF4424F29BCAC0E42DA8E8B1E080
:10024000F8D2FF93EF93FBD2E7E1FCD2EAE0F4E0CF
:1002500060E070E03AD4AF91BF91FAD2E42DA0EB08
:10026000B1E0E7D2FF93EF93EAD2E6E1EBD2E4EE1E
:10027000F0E060E070E029D4AF91BF91E9D2DFD225
:10028000EAD23324F1D238F4F2D2D3D20F01BAD267
:10029000F2D23394F7CF3324E7D2B8F4632CE4E1FD
:1002A0006E1688F4E4D2EAD2EFD237D4E015F10525
:1002B00040F4DDD2E3D2EED2BCD2F8D2DCD2FBD213
:1002C000FED26394ECCF3394E7CF00D3E0E13E1647
:1002D00028F4CDD2D3D206D33394F8CF18D329F44F
:1002E00030D3E0938201F09383013324BDD238F4FC
:1002F000BED29FD20F0194D2BED23394F7CF332413
:10030000B3D2B8F4632CE4E16E1688F4B0D2B6D25E
:10031000BBD203D4E015F10540F4A9D2AFD2BAD2D2
:1003200088D2C4D2A8D2C7D2CAD26394ECCF3394B5
:10033000E7CFCCD2E0E13E1628F499D29FD2D2D2B8
:100340003394F8CFE4D239F4FCD2E0938401F093F3
:100350008501772488244394E4E14E1608F0442470
:10036000A1E0D3DE66277727F1D2E0910002F09179
:1003700001026091020270910302ADE0B0E080E002
:1003800090E070D3A4E6B0E080E090E06BD3DF01B2
:10039000CB01EFEFF3E060E070E097D3E454FD4F62
:1003A0006F4F7F4FD3D2E0918401F0918501A091EE
:1003B0000002B0910102809102029091030266272F
:1003C0007727AFD310F4F19A01C0F198F298F19B1E
:1003D00008C00DD2A4E6B0E025D30DD2A4E6B0E06B
:1003E00021D329CFFFCFAA93A3D30A8110E01830DD
:1003F00060F4E02FE078E03811F4429A01C04298AE
:10040000AED2B2D2000F1F5FF2CF97D3E8C190D324
:1004100000E010E0183038F4000FA1D233990F5FDC
:10042000A3D21F5FF7CFE02F099119910895AA93E6
:1004300024971A939ED2EA85A3D219F44598A5D29F
:100440000BC0A6D221F4459A2898289A05C0A4D2B8
:1004500019F4459A289A2898E985EF73E987E068A6
:10046000E9879ED2A985BFDF9BD210E0E8851E17E1
:1004700030F49BD29DD2AC91B6DF1F5FF7CF90D204
:10048000459A83D218812B960895AA9328971A9398
:1004900010E0143048F489D2DE011596AE0FBF1F6C
:1004A000E0E0EC931F5FF5CFEB856AD219F4459835
:1004B0006CD20BC06DD221F4459A2898289A05C0B9
:1004C0006BD219F4459A289A28986AD2EA85EF7374
:1004D000EA87AA8588DF64D210E0E9851E1768F4F0
:1004E00064D2DE011596EA0FFB1FFF93EF938FDFB7
:1004F000AF91BF91EC931F5FF0CF52D2459A45D296
:10050000E0E0E983EA83EB83EC8310E0E9851E17E2
:1005100088F453D2E8E095D255D247D2DE01159641
:10052000AE0FBF1FEC91F0E048D297D285D24AD2ED
:100530001F5FECCFE981FA816B817C8118812C9659
:1005400008957DD1E9E043D248D279D1EAE03FD2A3
:10055000E0E1EA93A0E06BDF52D171D17CD14FD1C1
:100560006ED1EFE1EA936BD1EAE2EA9336D267D13A
:10057000EEE1EA9364D1EFEFEA932FD20895AA93C4
:1005800024971A9310E0143030F40FD211D2E0E027
:10059000EC931F5FF8CFEDD110E0E885F0E03197E4
:1005A000A12FB0E0AE17BF0744F4FFD101D2EC9108
:1005B000EA93A0E0FBD01F5FF0CFF7D1F9D1EC9127
:1005C000EA93A1E0F3D0188129960895AA93AED2B8
:1005D00010E000E030E0ED81D3D119F431E001E02A
:1005E0004AC0D6D119F432E002E045C0D5D121F499
:1005F00034E004E010E43FC0E430A0E0FA0719F46E
:1006000038E008E038C0E530A0E0FA0711F430E443
:1006100031C0E630A0E0FA0721F430E200E410E453
:100620002AC0E730A0E0FA0719F430E100E223C065
:10063000E830A0E0FA0719F430E800E11CC0E93026
:10064000A0E0FA0719F430E000E415C0EA30A0E0B9
:10065000FA0721F430E000E214E00DC0EB30A0E036
:10066000FA0719F430E000E106C0EC30A0E0FA0728
:1006700011F430E000E8EC81F0E0309711F4176BF2
:1006800031C0E130A0E0FA0711F411682BC080D12D
:1006900011F41D6327C080D111F41D6A23C0E4301A
:1006A000A0E0FA0711F41B681DC0E530A0E0FA07CE
:1006B00011F41E6A17C0E630A0E0FA0711F41E6BB1
:1006C00011C0E730A0E0FA0711F415680BC0E8305C
:1006D000A0E0FA0711F41F6B05C0E930A0E0FA07AB
:1006E00009F41F6AE2E0EA931A930A93A32F47DF03
:1006F00022D22696089576D1A13019F476D17AD1F6
:1007000041C070D1A23019F470D178D138C06AD10B
:10071000A33019F46AD177D132C064D1A43011F476
:1007200064D12DC05FD1A53019F472D163D12AC034
:1007300059D1A63019F46CD161D121C053D1A73061
:1007400019F466D160D11BC04DD1A83011F460D12D
:1007500016C048D1A93019F460D14CD113C042D190
:10076000AA3019F45AD14AD10AC03CD1AB3019F49D
:1007700054D149D104C036D1AC3031F44ED1EAE085
:10078000F0E0C8D1E0938101E0918001EA93A0916B
:1007900081011CDFE0918001EF5FE093800122D1B5
:1007A000A93018F0E1E0E09380010895AA931A932C
:1007B00010E0183070F4EA81E078E03811F42B9AF8
:1007C00001C02B98EA81EE0FEA832D9A2D981F5FC6
:1007D000F0CFE981E03011F0299A29981881239609
:1007E0000895E0938500E0E0E09384000895E1E05F
:1007F000E09370000895E0E0E09370000895A8ECA5
:10080000B0E010C1E32DA8E8B1E0F0E0EE0FFF1F6B
:10081000AE0FBF1F0895E0E0F0E0ED93FC93089564
:10082000E32DA0EBB1E0F0E0EE0FFF1FAE0FBF1F16
:100830000895F0E0EE0FFF1FEA0FFB1F0895E1E0BF
:10084000EA930895EA93A3E020DEDF01CB01089547
:10085000ED93FC930895ECE0EA93E2E0EA93E0E0A4
:10086000EA93EA93A0E0E3CDE4E13E160895E32D98
:10087000A8EDB1E0089551D1D001EACFF0E0EE0F3C
:10088000FF1FAE0FBF1F08950D901C90E62DA8ED21
:10089000B1E0F4CF42D166277727E0930002F093CE
:1008A00001026093020270930302E1CF0F01E62D73
:1008B000A8EDB1E0E3CFE62DA8EDB1E0BACFA0916D
:1008C0000002B0910102A083B1830895E0E0E093BB
:1008D0000002E0930102E0930202E0930302E4E0ED
:1008E0003E2E08951AD1A0910002B091010280918C
:1008F000020290910302662777279ED0E0930002C0
:10090000F093010260930202709303020895A09194
:100910000002B09101028091020290910302ECE08A
:10092000F0E060E070E0D1D0E0930002F0930102CB
:100930006093020270930302E8ECF0E0E715F8051B
:100940000895E0910002F09101020895E093000201
:10095000F093010260930202709303020895449A97
:1009600085E88A95F1F70895449885E88A95F1F726
:100970000895EF81E983EE81EA83ED81EB830895A9
:10098000F0E0E130A0E0FA070895289A289A089547
:10099000E230A0E0FA070895E330A0E0FA070895F6
:1009A00088EC90E00197F1F70895E12FF0E00895C9
:1009B000DE011196AE0FBF1F0895A981BA818B8108
:1009C0009C810895E983FA836B837C830895EA937D
:1009D000E2E0EA93E0E0EA930895E0E0EA93A0E041
:1009E00026DD0DCFA09180010895A0918201B091E4
:1009F00083010895E8EEF3E055D00895E4E6F0E0D1
:100A000051D0DF010895EAE0F0E04CD0DF01089515
:100A1000A0918401B09185010895A0918601B091C3
:100A200087010895109639F080ED97E00197F1F76E
:100A3000A8951197C9F70895EA0FFB1F681F791F42
:100A40000895EE230E2EFD01BC0131F0EE0FFF1FC5
:100A5000661F771F0A94D1F708956F2F660F660BF4
:100A6000762F08957A9F702D6B9F700DF89F700DF3
:100A7000E99F700D6A9F602D710DFB9F600D711DC8
:100A8000E89F600D711D8827FA9FF02D610D781F7A
:100A9000EB9FF00D611D781FEA9FE02DF10D681F9F
:100AA000781F08950024112490E1AA0FBB1F001C99
:100AB000111C0E1A1F0A18F40E0E1F1E01C0A16091
:100AC0009A9599F7FD01D00108953F934F935F9355
:100AD000002411244427552730E2AA0FBB1F881F8A
:100AE000991F001C111C441F551F0E1A1F0A460B8C
:100AF000570B28F40E0E1F1E461F571F01C0A16082
:100B00003A9559F7FD01BC01D001CA015F914F919F
:100B10003F910895C7DFFD010895ED91FC91119774
:100B20000895AE17BF078607970708953A932A934B
:100B30001A930A9308953B812A81198108810895A7
:00000001FF
