:1000000017C042C042C0FCCFFBCFFACFF9CFF8CF28
:100010003DC0F6CFF5CFF4CFF3CFF2CFF1CFF0CF95
:10002000EFCFEECFEDCF0100010060012600000010
:10003000F894EE27ECBBF1E0FBBFEBBFE5BF8DE032
:10004000A2E0BB27ED938A95E9F780E094E0A0E673
:10005000ED930197E9F7E8E2F0E08591959100973B
:1000600061F0A591B59105901590BF01F001059043
:100070000D920197E1F7FB01F0CFEFE5EDBFE4E072
:10008000EEBFC0E6D1E01FC0189518950A921A92EB
:10009000FA926A937A938A939A93AA93BA93EA9379
:1000A000FA93EFB7EA931ED2C2D1E991EFBFF9916B
:1000B000E991B991A9919991899179916991F99071
:1000C000199009901895EAE2E7BBE0E0E8BBE4E3A9
:1000D000E4BBE0E0E5BBE0E2E1BBE0E0E2BBE3BFC4
:1000E000E2BFEFBDE1E0EEBDFDD1E0E0E7BDE6BD82
:1000F000EBBDEABDE9BDE8BDE2BDE5BDE4BDE3BDE4
:10010000E4E0E9BFEBB7E06CEBBFEAE0E5BFE0ECB1
:10011000EABFE0E0EAB9E0E8E8B9E0E0E7B9E3E83F
:10012000E6B9E0E0E0BFEDB9E6BF7894959AA4E6C1
:10013000B0E031D29598E1E0EA93E7E1EA93A3E0F9
:100140002ED0E0936201F0936301E1E0EA93E6E1EF
:10015000EA93A3E024D0E0936401F0936501EBCF30
:10016000FFCFAA9375D20A8110E0183038F4E02F3F
:10017000E078AA9ABCD1C1D11F5FF7CF6ED297C0E9
:1001800067D200E010E0183030F4B1D19B990F5FD6
:10019000B4D11F5FF8CFE02F099119910895AA9368
:1001A00028971A9310E0143030F4ACD1B0D1E0E0CD
:1001B000EC931F5FF8CFEB85ADD121F4AD98C09AD9
:1001C000C09A0BC0ACD121F4AD9AC098C09A05C0BA
:1001D000AAD119F4AD9AC09AC098A9D1EA85EF7353
:1001E000EA87AA85BEDFA3D110E0E9851E1758F47F
:1001F00089D1EA0FFB1FFF93EF93C2DFAF91BF914D
:10020000EC931F5FF2CF93D1AD9AC09AC09AE0E011
:10021000E983EA83EB83EC8310E0E9851E1770F431
:100220008BD1E8E0C7D18DD16DD171D1EC91F0E0E7
:1002300083D1CCD1BAD185D11F5FEFCFAA85A631AA
:1002400039F47AD1E0E1FEE060E070E0D7D113C08C
:10025000AA85A73139F470D1E4EFF1E060E070E0F5
:10026000CDD109C0AD81BB27EE81F0E050D1EF8147
:10027000F0E0EA0FFB1F18812C960895AA931A93B9
:1002800010E0183070F4EA81E078E03811F4C39A95
:1002900001C0C398EA81EE0FEA83C59AC5981F5F33
:1002A000F0CFE981E03011F0C19AC198188123960E
:1002B0000895AA9324971A9310E0143028F446D195
:1002C000E0E0EC931F5FF9CFEF81E983EE81EA83F1
:1002D000ED81EB8310E0E885F0E03197A12FB0E0ED
:1002E000AE17BF073CF432D1EC91EA93A0E0C6DF31
:1002F0001F5FF1CF2BD1EC91EA93A1E0BFDF188112
:1003000029960895AA93A2D110E000E030E0ED8193
:1003100001D119F431E001E04AC001D119F432E011
:1003200002E045C000D121F434E004E010E43FC015
:10033000E430A0E0FA0719F438E008E038C0E5300E
:10034000A0E0FA0711F430E431C0E630A0E0FA078B
:1003500021F430E200E410E42AC0E730A0E0FA071C
:1003600019F430E100E223C0E830A0E0FA0719F404
:1003700030E800E11CC0E930A0E0FA0719F430E0F1
:1003800000E415C0EA30A0E0FA0721F430E000E212
:1003900014E00DC0EB30A0E0FA0719F430E000E102
:1003A00006C0EC30A0E0FA0711F430E000E8EC8180
:1003B000F0E0309711F4176B31C0E130A0E0FA079C
:1003C00011F411682BC0ABD011F41D6327C0ABD062
:1003D00011F41D6A23C0E430A0E0FA0711F41B6891
:1003E0001DC0E530A0E0FA0711F41E6A17C0E63020
:1003F000A0E0FA0711F41E6B11C0E730A0E0FA0785
:1004000011F415E80BC0E830A0E0FA0711F41F6BF7
:1004100005C0E930A0E0FA0709F41F6AE2E0EA93B8
:100420001A930A93A32F45DF16D12696089593D0E9
:10043000A13019F493D097D041C08DD0A23019F4D7
:100440008DD095D038C087D0A33019F487D094D000
:1004500032C081D0A43011F481D02DC07CD0A53021
:1004600019F48FD080D02AC076D0A63019F489D064
:100470007ED021C070D0A73019F483D07DD01BC0AE
:100480006AD0A83011F47DD016C065D0A93019F417
:100490007DD069D013C05FD0AA3019F477D067D06F
:1004A0000AC059D0AB3019F471D066D004C053D013
:1004B000AC3031F46BD0EAE0F0E0C5D0E0936101FC
:1004C000E0916001EA93A09161011CDFE09160017D
:1004D000EF5FE09360013FD0A93018F0E1E0E093D6
:1004E00060010895E3E8EDBDE0E0ECBD0895AC9A4D
:1004F00085E88A95F1F7AC98089585E88A95F1F733
:10050000000F0895E12FF0E0DE0115960895AE0F7B
:10051000BF1F0895F0E0E130A0E0FA070895E2304F
:10052000A0E0FA070895E330A0E0FA07089588EC08
:1005300090E00197F1F70895A981BA818B819C81A0
:100540000895E983FA836B837C830895E12FF0E0BB
:10055000DE011196DCCFA09160010895A0916201A7
:10056000B09163010895E8EEF3E035D00895E4E634
:10057000F0E031D0DF010895EAE0F0E02CD0DF01B7
:100580000895A0916401B09165010895A09166015C
:10059000B09167010895109639F080ED97E00197CA
:1005A000F1F7A8951197C9F70895EA0FFB1F681F87
:1005B000791F0895EE230E2EFD01BC0131F0EE0FE0
:1005C000FF1F661F771F0A94D1F708956F2F660FDC
:1005D000660B762F08950024112490E1AA0FBB1F0B
:1005E000001C111C0E1A1F0A18F40E0E1F1E01C04B
:1005F000A1609A9599F7FD01D00108953F934F931B
:100600005F93002411244427552730E2AA0FBB1F13
:10061000881F991F001C111C441F551F0E1A1F0A0A
:10062000460B570B28F40E0E1F1E461F571F01C006
:10063000A1603A9559F7FD01BC01D001CA015F9153
:100640004F913F910895C7DFFD0108953A932A9392
:100650001A930A9308953B812A811981088108958C
:00000001FF
